:020000040800F2
:1000000080060020E10200088F480008094300082C
:100010008D480008ED030008B153000800000000FF
:10002000000000000000000000000000D74B0008A6
:10003000910900080000000091480008D94B000811
:10004000FB020008FB020008FB020008FB0200089C
:10005000FB020008FB020008FB020008FB0200088C
:10006000FB020008FB020008FB020008A1040008D4
:10007000AD040008FB020008FB020008FB020008B8
:10008000FB020008FB020008FB020008FB0200085C
:10009000FB020008FB020008FB020008FB0200084C
:1000A000FB020008FB020008FB020008FB0200083C
:1000B000FB020008FB020008FB020008FB0200082C
:1000C000FB020008FB020008FB020008FB0200081C
:1000D000FB020008FB020008FB020008FB0200080C
:1000E000FB020008FB02000800000000FB02000801
:1000F000FB020008FB020008FB020008FB020008EC
:10010000FB020008FB020008FB020008FB020008DB
:10011000FB020008FB020008FB020008FB020008CB
:10012000FB020008FB020008FB020008FB020008BB
:10013000FB020008FB020008FB020008FB020008AB
:1001400000000000000000000000000000000000AF
:10015000FB020008FB020008FB020008FB0200088B
:10016000FB020008FB020008FB020008FB0200087B
:10017000FB020008FB0200089504000800000000D4
:10018000FB020008FB020008FB020008FB0200085B
:10019000FB020008FB020008FB020008FB0200084B
:1001A000FB020008FB020008FB0200080000000040
:1001B000FB020008FB020008FB020008FB0200082B
:1001C000FB020008FB020008000000000000000025
:1001D0000000000000000000FB020008000000001A
:1001E000000000000000000000000000000000000F
:1001F0000000000000000000FB020008FB020008F5
:10020000FB020008FB02000800000000FB020008DF
:10021000FB020008FB020008FB020008FB020008CA
:10022000FB02000800000000FB02000800000000C4
:10023000FB020008FB02000800000000FB020008AF
:10024000FB020008FB020008FB020008FB0200089A
:10025000FB020008FB020008FB020008FB0200088A
:10026000FB020008FB020008FB020008FB0200087A
:10027000FB020008FB020008FB020008000000006F
:10028000FB020008FB020008FB020008FB0200085A
:1002900000000000FB020008FB0200080000000054
:1002A00000000000FB020008FB020008FB0200083F
:1002B000FB020008FB020008FB020008FB0200082A
:1002C000FB020008FB020008FB020008DFF80CD06C
:1002D00000F07AF800480047ED560008800600203C
:1002E0000648804706480047FEE7FEE7FEE7FEE7D0
:1002F000FEE7FEE7FEE7FEE7FEE7FEE77D4C0008CF
:10030000CD0200082DE9F05F0546002092469B468D
:1003100088460646814640241BE02846414647461B
:10032000224600F041F853465A46C01A914110D374
:1003300011461846224600F028F82D1A67EB0108EE
:100340004F4622460120002100F01FF817EB00095C
:100350004E41201EA4F10104DFDC484631462A4606
:100360004346BDE8F09FD2B201E000F8012B491EE0
:10037000FBD270470022F6E710B513460A46044642
:100380001946FFF7F0FF204610BD202A04DB203A73
:1003900000FA02F1002070479140C2F1200320FAD8
:1003A00003F3194390407047202A04DB203A21FAD6
:1003B00002F00021704721FA02F3D040C2F120027E
:1003C0009140084319467047064C074D06E0E06827
:1003D00040F0010394E8070098471034AC42F6D38C
:1003E000FFF778FF2072000840720008FEE710B5A2
:1003F000806B816C496D022906D0012180F835108F
:10040000C16C41F04001C16400F0C5FA10BD10B5E7
:10041000816B0C468A6B886C0168CAB10A68A36B51
:1004200002F40022DB0706D12AB1C968E26B01EBB6
:10043000C201002207E00A68120319D40969E26BBD
:1004400001EBC201012200F07BFCA06B401E0EE01C
:100450000868000302D5606CC86009E00868000302
:1004600006D4E26B606C00EB82000861206CA06334
:10047000A06B216C88420BD12068C16841F001015A
:10048000C16020680068800702D5012084F835002B
:1004900010BD0000014800F097BA000020000020C5
:1004A000014801F00BB8000070000020014801F085
:1004B00005B8000004020020294A016891423AD0A0
:1004C000274A1832914236D0254A3032914232D0F2
:1004D000234A483291422ED0214A603291422AD09A
:1004E0001F4A7832914226D01D4A9032914222D042
:1004F0001B4AA83291421ED01A4A91421BD0194A77
:100500001832914217D0174A3032914213D0154A0F
:10051000483291420FD0134A603291420BD0114AB7
:100520007832914207D00F4A9032914203D00D4A5F
:10053000A832914211D1CAB21823103AB2FBF3F299
:100540006FF30901032A02F00703074AD25CC26570
:1005500000D9091D81650846704721F0FF01F9E7C0
:100560001000024010040240C85D000830B5224A65
:10057000012301689142CAB21BD01F4C1434A1421E
:1005800017D01D4C2834A14213D01B4C3C34A1423F
:100590000FD0194C5034A1420BD0174C6434A142F7
:1005A00007D0154C7834A14203D0134C8C34A142AF
:1005B0000CD11421114C083AB2FBF1F10F4A8032F0
:1005C00001F01F0504EB8101AB4010E00C4D182435
:1005D000103A0D44B2FBF4F1A82D00D80831094AB5
:1005E00001F01F0402EB8101064AA3408032603013
:1005F00080E80E0030BD0000085402580058025830
:10060000F0FBFDBF0008024010B50279531E072B16
:100610002DD8174C0168A1421BD0154C1434A142AF
:1006200017D0134C2834A14213D0114C3C34A142B2
:100630000FD00F4C5034A1420BD00D4C6434A1426A
:1006400007D00B4C7834A14203D0094C8C34A14222
:1006500003D10849074C443102E00749064C4431B4
:1006600004EB8202C0E91B2101219940416710BDC2
:1006700008540258FC580258FC08024010B583691F
:100680004FF0C074826A0146002053B1B3F5005F99
:1006900015D072B1012A0CD0022A0AD0032A09D13E
:1006A00004E01AB1012A06D0022A03D1C96AC9019D
:1006B00000D5012010BDC96AA142FAD010BD002AA0
:1006C000F7D0012AF2D0022AF3D0032AF3D010BDCA
:1006D00030B5254D0468AC4238D0234D1835AC42B6
:1006E00034D0214D3035AC4230D01F4D4835AC426E
:1006F0002CD01D4D6035AC4228D01B4D7835AC4216
:1007000024D0194D9035AC4220D0174DA835AC42BD
:100710001CD0164DAC4219D0144D1835AC4215D032
:10072000124D3035AC4211D0104D4835AC420DD091
:100730000E4D6035AC4209D00C4D7835AC4205D039
:100740000A4D9035AC4201D0084DA83563608368EE
:10075000402B036803D099600068C26030BD9A6086
:100760000068C16030BD000010000240100402406B
:100770002DE9F04F804E804FDFF8FC911836DFF8FE
:10078000F8A148370468856D0AF1300ADFF8ECB14A
:100790004C45DFF8ECC1DFF8ECE16DD0B4426BD032
:1007A000544569D0BC4267D0DFF8D081A8F1180861
:1007B000444561D05C455FD064455DD074455BD0F5
:1007C000DFF8C481444557D0DFF8BC8108F1180830
:1007D000444551D0DFF8B08108F1300844454BD092
:1007E000DFF8A48108F14808444545D0DFF8988136
:1007F00008F1600844453FD0DFF88C8108F17808A3
:10080000444539D0DFF8808108F19008444533D061
:10081000DFF8748108F1A80844452DD0DFF86C8119
:10082000444529D0DFF8648108F11408444523D0F9
:10083000DFF8588108F1280844451DD0DFF84C81C5
:1008400008F13C08444517D0DFF8408108F1500812
:10085000444511D0DFF8348108F1640844450BD0D9
:10086000DFF8288108F17808444505D0DFF81C81BD
:1008700008F18C08444509D1D0E91948C4F804802E
:10088000C46E1CB1D0E91C48C4F8048004684C450F
:100890002ED0B4422CD054452AD0BC4228D0374E5A
:1008A000183EB44224D05C4522D0644520D0744523
:1008B0001ED0354EB4421BD0334E1836B44217D03A
:1008C000314E3036B44213D02F4E4836B4420FD09A
:1008D0002D4E6036B4420BD02B4E7836B44207D042
:1008E000294E9036B44203D0274EA836B44215D1D3
:1008F00090F85C603F2406F01F06B440AC600468CA
:10090000256825F4802525602EE09A600068C16086
:10091000BDE8F08F99600068C260F9E71B4EB442F1
:100920001BD01A4E1436B44217D0184E2836B44293
:1009300013D0164E3C36B4420FD0144E5036B4424B
:100940000BD0124E6436B44207D0104E7836B44203
:1009500003D00E4E8C36B442DAD190F85C6001249C
:1009600006F01F06B4406C60046863608368402B27
:100970000368CFD1C9E700001000024088000240A0
:10098000A0000240B800024010040240085402587F
:10099000704772B6FEE7704710B501F059FD094C7B
:1009A0006168401AB0F57A7F06D301F051FD6060AE
:1009B00000216078A070617001216078401C607037
:1009C000217010BD140000202DE9F041044600689C
:1009D000234F0426056969070BD54661E06C40F09A
:1009E0000200E06484F83560A06C0765A06C00F03C
:1009F00023FCA8070DD5216802204861E06C40F077
:100A00000100E06484F83560A06C0765A06C00F01C
:100A100013FCE80605D5216810204861204600F047
:100A20006FF8280705D5216808204861204600F0A6
:100A300085F9E80712D020680168890703D5C168E5
:100A400021F01E01C16020680121C26822F001026C
:100A5000C260206841612046FFF79EFFBDE8F0813B
:100A6000EF0300082DE9F041040003D094F83500AD
:100A700018B105E00120BDE8F081204600F042F801
:100A8000A16902204FF0000E84F8350009B1C4F8C6
:100A900024E02068194A016811400160D4E9045239
:100AA000E168D4E9010C29431043A269084354F8D2
:100AB000201B40EA0C001043B4E8E8100A68184311
:100AC00028433043384340EA0C001043086054F890
:100AD000300C343C102805D12268E17FE06961F3D5
:100AE0001F60906120680121C26842F01E02C2604E
:100AF000C4F84CE084F835100020BCE707F0E0FFB4
:100B0000704700002DE9F04186B080461421684608
:100B1000FFF730FC4549D8F8000088427ED14448B0
:100B2000016841F001010160006800F001000590DA
:100B30003F48001D016841F010010160016801F0AB
:100B400010010591016841F001010160016801F0A7
:100B500001010591016841F004010160016801F0A3
:100B600004010591016841F008010160016801F08C
:100B700008010591016841F002010160006802244A
:100B80000025694600F00200059003260D2770201D
:100B90008DE8F100274801F043FB502069468DE8BD
:100BA000F100254801F03CFB4FF4707069468DE878
:100BB000F100224801F034FB082069468DE8F1007D
:100BC0001F4801F02DFB802069468DE8F1001D488B
:100BD00001F026FB1D4B4B271B4C18152360810091
:100BE000C4E9017502018310C4E9035004F1140043
:100BF000042780E8AE00C4E90A652046256300F0BA
:100C0000D1FF08B1FFF7C5FE0022C8F848404E20CA
:100C10001146C4F8388001F093FC00E002E04E2059
:100C200001F080FC06B0BDE8F08100000000024841
:100C3000DC44025800100258000002580008025814
:100C4000000C0258000402587000002010000240FE
:100C50002DE9F843044690F83400012833D0354894
:100C600002274FF0010884F83480002584F835709D
:100C700026684FF4803C6345376847F48047376007
:100C800026684FF04009376827F00207376026686A
:100C9000376847EA01073760A16CC863A66C26492C
:100CA000F164A16C0D65A5632564E56365640DD2EF
:100CB0002168A06C283101F053F980B3C4F84C903E
:100CC00084F8358027E00220BDE8F883A16C464611
:100CD0004864C4F83880E363626405E0E06B400870
:100CE000E063A06B4000A063E06B6045F6D2A06BB0
:100CF000801EA063A36BE16BE06B2364009002EBAA
:100D000081032168A06C283100F062F838B1C4F882
:100D10004C9084F83560012084F83450D4E7FFE724
:100D20002068016841F001010160002084F834501E
:100D3000CAE700000F040008EF0300087047000036
:100D40000068214B984238D01F4B1833984234D05A
:100D50001D4B3033984230D01B4B483398422CD037
:100D6000194B6033984228D0174B7833984224D0DF
:100D7000154B9033984220D0134BA83398421CD087
:100D8000124B984219D0114B1833984215D00F4B83
:100D90003033984211D00D4B483398420DD00B4B55
:100DA0006033984209D0094B7833984205D0074BFD
:100DB0009033984201D0054BA83312B10161002055
:100DC0007047C160FBE700001000024010040240C1
:100DD0002DE9FF4F81B081689646044600200E9AA7
:100DE0008029009012D094F83400012813D094F890
:100DF0003500012184F8341001280ED0C9020120E9
:100E000000906165009805B0BDE8F08F4FF48070E8
:100E100060650120F7E70220F5E7FE4D0227206814
:100E2000002684F83570A842FB4D6665FB4EFC4FEA
:100E3000DFF8F093DFF8F0A3DFF8F0B33FD0A8427B
:100E40003DD0B0423BD0B84239D0484537D050456C
:100E500035D0584533D0DFF8D4C30CF1180C6045B9
:100E60002DD0DFF8CCC3604529D0DFF8C4C30CF126
:100E7000180C604523D0DFF8B8C30CF1300C604586
:100E80001DD0DFF8ACC30CF1480C604517D0DFF87B
:100E9000A0C30CF1600C604511D0DFF894C30CF1D5
:100EA000780C60450BD0DFF888C30CF1900C6045DE
:100EB00005D0DFF87CC30CF1A80C604510D1D0F848
:100EC00000C03F214CF4802CC0F800C020680361B2
:100ED00094F85C30A06D03F01F039940816010E02E
:100EE000D0F800C048F220084CEA080CC0F800C056
:100EF0002068036194F85C30A06D03F01F039940F3
:100F000041601346029972462046FFF7E1FBC94A49
:100F1000C84BDFF820E31432DFF8F882283320686A
:100F20000EF13C0EC34940455FD0A8425DD0B042AF
:100F30005BD0B84259D0484557D0504555D0584558
:100F400053D0DFF8E8C20CF1180C60454DD0DFF843
:100F5000E0C2604549D0DFF8D8C20CF1180C6045FA
:100F600043D0DFF8CCC20CF1300C60453DD0DFF847
:100F7000C0C20CF1480C604537D0DFF8B4C20CF1A8
:100F8000600C604531D0DFF8A8C20CF1780C6045E8
:100F90002BD0DFF89CC20CF1900C604525D0DFF817
:100FA00090C20CF1A80C60451FD088421DD0904221
:100FB0001BD0984219D0704517D0DFF878C20CF1D9
:100FC000500C604511D0DFF86CC20CF1640C604528
:100FD0000BD0DFF860C20CF1780C604505D0DFF86B
:100FE00054C20CF18C0C604509D1D4E9190CC0F83D
:100FF00004C0E06E18B1D4E91C0CC0F804C0C446AB
:10100000206860453FD0A8423DD0B0423BD0B842B6
:1010100039D0484537D0504535D0584533D0DFF822
:101020000C8208F1180840452DD0DFF804824045B5
:1010300029D0DFF8FC8108F11808404523D0DFF8FB
:10104000F08108F1300840451DD0DFF8E48108F157
:101050004808404517D0DFF8D88108F160084045BE
:1010600011D0DFF8CC8108F1780840450BD0DFF8CB
:10107000C08108F19008404505D0DFF8B48108F13F
:10108000A808404518D1D0F8008028F01E0848F084
:101090001608C0F800802068D0F8148048F0800856
:1010A000C0F81480206C08B9A06CC0B12068D0F8DA
:1010B000008048F0080810E0D0F8008028F00E0802
:1010C00048F00A08C0F80080206C08B9A06C30B164
:1010D0002068D0F8008048F00408C0F8008020683C
:1010E000E046404557D0A84255D0B04253D0B84210
:1010F00051D048454FD050454DD058454BD0DFF8E2
:101100002CC10CF1180C604545D0DFF824C16045B6
:1011100041D0DFF81CC10CF1180C60453BD0DFF862
:1011200010C10CF1300C604535D0DFF804C10CF172
:10113000480C60452FD0DFF8F8C00CF1600C60451A
:1011400029D0DFF8ECC00CF1780C604523D0DFF833
:10115000E0C00CF1900C60451DD0DFF8D4C00CF15C
:10116000A80C604517D0884215D0904213D0984201
:1011700011D070450FD02F49503188420BD02D49E6
:101180006431884207D02B497831884203D02949FD
:101190008C3188420DD1206E0168C90303D50168E6
:1011A00041F480710160E06E18B1016841F4807112
:1011B00001602068404528D0A84226D0B04224D003
:1011C000B84222D0484520D050451ED058451CD0AA
:1011D00016491831884218D01549884215D014494B
:1011E0001831884211D01249303188420DD010494F
:1011F0004831884209D00E496031884205D00C49F7
:101200007831884201D00A499031016841F00101EA
:101210000160F7E510000240280002404000024053
:10122000580002407000024088000240A0000240C6
:1012300010040240085402582DE9F05F28B190F8DC
:101240003510022904D0802141650120BDE8F09FBE
:10125000904C904B0168183C18338E4ADFF83C9252
:10126000A1428D4CDFF838E28E4FDFF83CB2DFF858
:101270003CA28F4D8F4E31D091422FD099422DD02C
:10128000A1422BD0494529D0714527D0B94225D05C
:10129000DFF810C20CF1180C61451FD0DFF808C24E
:1012A000ACF1600C614519D0DFF8FCC1ACF1480C21
:1012B000614513D0DFF8F0C1ACF1300C61450DD0C1
:1012C000DFF8E4C1ACF1180C614507D0594505D0F1
:1012D000514503D0A94201D0B1422CD1DFF8B4C1AD
:1012E0004FF0040880F83580ACF1180C61451DD032
:1012F00091421BD0994219D0A14217D0494515D02F
:10130000714513D0B94211D06648183081420DD0D2
:1013100065486038814209D063484838814205D029
:1013200061483038814201D05F481838086820F0A1
:1013300001000860ABE0D1F800C02CF00E08DFF827
:1013400054C1C1F80080ACF1180C0168614527D088
:10135000914225D0994223D0A14221D049451FD0A6
:1013600071451DD0B9421BD0DFF838C10CF1180C03
:10137000614515D0DFF830C1ACF1600C61450FD08C
:10138000DFF824C1ACF1480C614509D0DFF818C181
:10139000ACF1300C614503D0DFF80CC1ACF1180C96
:1013A000D1F800C02CF0010CC1F800C0DFF8E480D7
:1013B0004FF0010C0168A8F11808414546D0914250
:1013C00044D0994242D0A14240D049453ED07145D7
:1013D0003CD0B9423AD0334A1832914236D0324AE0
:1013E000603A914232D0304A483A91422ED02E4A49
:1013F000303A91422AD02C4A183A914226D0594587
:1014000024D0514522D0A94220D0B1421ED02A4A30
:1014100091421BD0284A1432914217D0264A2832D2
:10142000914213D0244A3C3291420FD0224A50328A
:1014300091420BD0204A6432914207D01E4A783242
:10144000914203D01C4A8C32914218D1016E0A6835
:1014500022F480720A6090F85C20816D02F01F0215
:101460000CFA02F24A60D0E919124A60C16E31B139
:101470000A6822F480720A60D0E91C124A600022D5
:10148000016D80F835C080F8342001B18847002014
:10149000DCE60000280002405800024070000240D4
:1014A00088000240A000024070040240880402400C
:1014B000A0040240B8040240085402582DE9FC5F21
:1014C0000446F74E0020DFF8D88300904FF4165200
:1014D000F44808F11808A56DDFF8C493DFF8C0A33D
:1014E000016809F1300920680AF1480AB1FBF2F1FC
:1014F000B04201912F68D5F800C0DFF8ACB335D009
:101500004146884232D0484530D050452ED05845CB
:101510002CD0E5491831884228D0E349303188423F
:1015200024D0E1494831884220D0E04988421DD08A
:10153000DE491831884219D0DC493031884215D053
:10154000DA494831884211D0DFF860E30EF1600ECD
:1015500070450BD0D54A7832904207D0D34B9033A8
:10156000984203D0D149A83188427DD194F85C20BB
:10157000082102F01F0201FA02F23A424AD0B042B8
:1015800032D0404530D048452ED050452CD058451B
:101590002AD0C54A1832904226D0C34A30329042EF
:1015A00022D0C14A483290421ED0C04A90421BD03D
:1015B000BE4A1832904217D0BC4A3032904213D003
:1015C000BA4A483290420FD0B84A603290420BD0AB
:1015D000B64A7832904207D0B44A9032904203D053
:1015E000B24AA832904203D1026802F0040202E03B
:1015F000026802F008026AB1026822F00402026086
:1016000094F85C0000F01F008140A960606D40F01C
:101610000100606594F85C00012100F01F0081402A
:10162000394240D02068B04234D0404532D048459D
:1016300030D050452ED058452CD09B4A183290427D
:1016400028D0994A3032904224D0974A483290426A
:1016500020D0964A90421DD0944A1832904219D018
:10166000924A3032904200E0AFE113D08F4A4832C4
:1016700090420FD08D4A603290420BD08B4A783224
:10168000904207D0894A9032904203D0874AA832CC
:1016900090427DD1406910F0800F04D0A960606D48
:1016A00040F00200606594F85C00042100F01F0027
:1016B000814039423ED02068B04232D0404530D0DF
:1016C00048452ED050452CD058452AD0764A18325D
:1016D000904226D0744A3032904222D0724A483228
:1016E00090421ED0714A90421BD0704A18329042EC
:1016F00017D06E4A3032904213D06C4A4832904232
:101700000FD06A4A603290420BD0684A78329042D9
:1017100007D0664A9032904203D0644AA832904281
:101720004ED1006810F0020F04D0A960606D40F047
:101730000400606594F85C00102100F01F008140F7
:10174000394258D02068B04234D0404532D0484564
:1017500030D050452ED058452CD0534A18329042A4
:1017600028D0514A3032904224D04F4A48329042D9
:1017700020D04E4A90421DD04C4A1832904219D087
:101780004A4A3032904215D0484A4832904200E0EE
:1017900014E00FD0454A603290420BD0434A783271
:1017A000904207D0414A9032904203D03F4AA8323B
:1017B000904207D1006800F0080006E0006872E778
:1017C0000068B7E7006800F00400A0B1A9602068D5
:1017D0000168490304D50068000308D5A16C07E03F
:1017E0000168C90503D4016821F008010160216C7A
:1017F00009B12046884794F85C00202100F01F00C2
:101800008140394279D02068B04232D0404530D052
:1018100048452ED050452CD058452AD0224A18325F
:10182000904226D0204A3032904222D01E4A48327E
:1018300090421ED01D4A90421BD01C4A1832904242
:1018400017D01A4A3032904213D0184A4832904288
:101850000FD0164A603290420BD0144A7832904230
:1018600007D0124A9032904203D0104AA8329042D8
:1018700003D1006800F0100002E0006800F00200F0
:10188000B0B3A96094F835000428206801680FD02F
:1018900049037ED5006800032BD4616C2AE0000068
:1018A000100002400C0000207000024010040240B2
:1018B00021F0160101602068416921F08001416139
:1018C000206C08B9A06C20B12068016821F00801E3
:1018D000016094F85C303F21012003F01F030022D7
:1018E0009940A96084F8350084F83420216D65E0C2
:1018F00003E0E16B09B120468847606D00287DD088
:10190000606DC00759D02068042184F83510B042BA
:101910002BD0404529D0484527D0504525D05845A3
:1019200023D09D49884220D09B49183188421CD041
:1019300099493031884218D09849884215D0974942
:101940001831884211D09549303188420DD09349E1
:101950004831884209D091496031884205D08F4989
:101960007831884201D08D499031016821F0010120
:10197000016020680099019A491C0091914202D8A7
:101980000168C907F6D10068C00710D003200FE036
:10199000FFE70168C905ACD403680121002223F0E8
:1019A0001003036084F8351084F83420A1E7012087
:1019B00084F83500002084F83400E16C00291DD043
:1019C00002B02046BDE8F05F0847754988421DD047
:1019D00073491431884219D071492831884215D091
:1019E0006F493C31884211D06D49503188420DD049
:1019F0006B496431884209D0694900E084E078315C
:101A0000884203D066498C3188427DD194F85C804D
:101A10000427016808F01F0807FA08F717EA0C0FF7
:101A2000009746D04F0744D500980F04686003D54F
:101A3000C8033CD4A16CC1E7880638D42068B04202
:101A40002DD055496039884229D0484527D0504586
:101A500025D0584523D05049884220D04E491831CE
:101A600088421CD04C493031884218D04B498842BA
:101A700015D04A491831884211D04849303188423E
:101A80000DD046494831884209D0704507D0904270
:101A900005D0984203D04149A831884203D101685A
:101AA00021F0080102E0016821F004010160216CCD
:101AB00084E7022707FA08F717EA0C0F00974ED0C1
:101AC0008F074CD500980F04686003D5C80344D431
:101AD000616C73E7880640D42068B0422FD02E494D
:101AE000603988422BD0484529D0504527D05845E9
:101AF00025D02949884222D02749183188421ED052
:101B000025493031884200E044E018D0234988421A
:101B100015D022491831884211D0204930318842ED
:101B20000DD01E494831884209D0704507D09042F7
:101B300005D0984203D01949A831884203D10168E1
:101B400021F0140102E0016821F00A010160012185
:101B500084F83510002084F83400E16B2EE7082269
:101B600002FA08F212EA0C0F14D0090712D5016824
:101B700021F00E01016094F85C100120002201F0B8
:101B80001F0100FA01F16960606584F8350084F88E
:101B9000342012E7BDE8FC9F880002401004024098
:101BA000085402582DE9F05F044600F051FC002C67
:101BB00007467DD0E24E022120684FF00308DFF88F
:101BC00084934FF00005DFF880A3B042DFF87CB3C8
:101BD00034D0DB4A1832904230D048452ED05045A0
:101BE0002CD058452AD0D94A1832904226D0D74A0C
:101BF0003032904222D0D54A483290421ED0D44A48
:101C000090421BD0D24A1832904217D0D04A30327C
:101C1000904213D0CE4A483290420FD0CC4A603224
:101C200090420BD0CA4A7832904207D0C84A9032CC
:101C3000904203D0C64AA83290427DD184F8351034
:101C4000B04284F834502ED0BD49183188422AD091
:101C5000484528D0504526D0584524D0BB49183196
:101C6000884220D0B949303188421CD0B749483128
:101C7000884218D0B649884215D0B54918318842F3
:101C800011D0B349303188420DD0B1494831884232
:101C900009D0AF496031884205D0AD4978318842DA
:101CA00001D0AB499031016821F00101016008E0E9
:101CB00025E100BF00F0CCFBC01B052801D9202185
:101CC0001AE120680068C007F4D1D4E90203216852
:101CD000103418438E4694E88410D4E90338096818
:101CE0003A4310439B4A40EA0C006769184311408D
:101CF000103C40EA0800042F40EA010003D1D4E977
:101D00000B12114308436168A1F12902052A0BD97E
:101D1000163A032A08D9083A012A05D9083A032AAB
:101D200002D97439032901D840F48010CEF800009C
:101D30002068676A406900E020E0042F20F0070077
:101D400047EA00070DD1D4E90A01074349B120460B
:101D5000FEF794FC28B140206065012184F835101D
:101D6000CDE0206847612046FEF7A6FB94F85C2092
:101D70003F2102F01F029140816055E0764A904277
:101D80001BD0754B1433984217D0734B28339842AD
:101D900013D0714B3C3398420FD06F4B5033984265
:101DA0000BD06D4B6433984207D06B4B783398421D
:101DB00003D0694B8C3398427ED184F8351084F877
:101DC0003450664B0168A26801EA030E402A74D0C1
:101DD000802A73D05FF00002D4E90378D4E905319A
:101DE00042EAD70242EAD8085B4AD4E9077C48EACB
:101DF000D30848EAD10141EAD701524241EA1C1115
:101E0000142341EA0E01016020681044B0FBF3F096
:101E10008000E0652046FEF74FFB94F85C2001212E
:101E200002F01F02914041602068B04257D04449FF
:101E30001831884253D0484551D050454FD058456D
:101E40004DD042491831884249D04049303188420A
:101E500045D03E494831884241D03D4988423ED034
:101E60003B49183188423AD039493031884236D01E
:101E700037494831884232D03549603188422ED0C6
:101E80003349783188422AD031499031884226D06E
:101E90002F49A831884222D02F4988421FD02E498D
:101EA000143188421BD02C492831884217D02A4946
:101EB0003C31884213D002E01DE017E018E02649CB
:101EC000503188420BD024496431884207D02249DE
:101ED0007831884203D020498C31884229D120466C
:101EE000FEF744FBA06880280CD00CE0102273E7BA
:101EF0004FF4804270E74021616584F8358001200D
:101F0000BDE8F09F6560216E20790860D4E9190171
:101F100041606068401E072808D82046FEF774FB21
:101F2000E06E0560D4E91C01416002E0E5662567CA
:101F300065670120656584F835000020E0E7000052
:101F40001000024040000240580002407000024071
:101F5000100402403F8010FE085402580F00FEFF9C
:101F60002DE9F84F04008C464FF00000009014D08B
:101F700094F83400012812D094F835500120002143
:101F800084F83400012D0CD0C0026065012000905F
:101F900084F834100098BDE8F88F0120FBE7022098
:101FA000F9E78C4D0226206884F83560A8428A4DF6
:101FB00061658A4E8A4FDFF82C82DFF82C92DFF8B9
:101FC0002CA2DFF82CB226D0A84224D0B04222D0D6
:101FD000B84220D040451ED048451CD050451AD0AC
:101FE000584518D08349884215D082491831884213
:101FF00011D08049303188420DD07E494831884225
:1020000009D07C496031884205D07A4978318842CC
:1020100001D078499031016821F0010101606146E9
:102020002046FEF7A5FB6B49206888422CD0A842C9
:102030002AD0B04228D0B84226D0404524D04845C6
:1020400022D0504520D058451ED06A4A90421BD01D
:10205000684A1832904217D0664A3032904213D004
:10206000644A483290420FD0624A603290420BD0AC
:10207000604A7832904207D05E4A9032904203D054
:102080005C4AA83290420CD1026822F01E0242F053
:1020900016020260206C88B12068026842F00802D3
:1020A0000BE0026822F00E0242F00A020260206C8D
:1020B00020B12068026842F0040202602068884271
:1020C0004BD0A84249D0B04247D0B84245D0404555
:1020D00043D0484541D050453FD058453DD0454A72
:1020E00090423AD0434A1832904236D0414A303278
:1020F000904232D03F4A483290422ED03D4A603220
:1021000090422AD03B4A7832904226D0394A9032C7
:10211000904222D0374AA83290421ED0364A90428E
:102120001BD0354A1432904217D0334A283290429D
:1021300013D0314A3C3290420FD02F4A5032904255
:102140000BD02D4A6432904207D02B4A783290420D
:1021500003D0294A8C3290420DD1206E0268D203FE
:1021600003D5026842F480720260E06E18B1026822
:1021700042F4807202602068884226D0A84224D0AF
:10218000B04222D0B84220D040451ED048451CD095
:1021900050451AD0584518D01649884215D01549CF
:1021A0001831884211D01349303188420DD011497D
:1021B0004831884209D00F496031884205D00D4925
:1021C0007831884201D00B499031016841F001011A
:1021D0000160DFE61000024028000240400002409B
:1021E000580002407000024088000240A0000240F7
:1021F000B8000240100402400854025870B504466A
:1022000000F026F90546601C02D00448007804441A
:1022100000F01EF9401BA042FAD370BD0000002060
:102220002DE9F84F03247A4D00234FF001094FF0B8
:10223000B04B4FF00F0AE4E009FA03F6324078D0D1
:102240000F7907F00307012F01D0022F1AD18768F9
:102250004FEA430ED1F80CC004FA0EF827EA08073B
:102260000CFA0EFC4CEA070CC0F808C0476891F85D
:1022700004C0B743CCF3001C0CFA03FC4CEA070C77
:10228000C0F804C00E79F643B6070BD0C6684FEA13
:1022900043088F6804FA08FC26EA0C0607FA08F7D8
:1022A0003743C7600E7906F00306022E12D1DE080E
:1022B0000F694FEA437C00EB8606B646366A4FEA62
:1022C000DC6C0AFA0CF807FA0CF726EA0806374322
:1022D000CEF820700F7906684FEA430807F003072D
:1022E00004FA08FC07FA08F726EA0C0637430760E9
:1022F0004E6816F4403F1CD0464E376847F0020740
:10230000376036689F0706F00206009623F0030642
:1023100006F1B046B6463F0FD6F80864DFF8F880FD
:102320000AFA07FC404526EA0C0603D14FF0000CE0
:102330003AE065E0DFF8E4C0604502D14FF0010CFF
:1023400032E0DFF8DCC0604502D14FF0020C2BE038
:10235000DFF8D0C0604502D14FF0030C24E0DFF875
:10236000C8C0604502D14FF0040C1DE0DFF8BCC0CE
:10237000604502D14FF0050C16E0DFF8B4C06045AF
:1023800002D14FF0060C0FE0DFF8A8C0604502D183
:102390004FF0070C08E0DFF8A0C0604502D14FF015
:1023A000090C01E04FF00A0C0CFA07FC4CEA060C91
:1023B000CEF808C44F68DBF80060FF0226EA020688
:1023C00000D516435F46CBF80060D1F804C0DBF8B7
:1023D00004605FEA8C2C26EA020600D516437E6074
:1023E0006E684F6826EA0206BF0300D516436E608A
:1023F0002E684F6826EA0206FF0300D516432E60BA
:102400005B1C0A6832FA03F67FF416AFBDE8F88F5A
:1024100080000058F444025800000258000402589A
:1024200000080258000C025800100258001402580C
:1024300000180258001C0258002402580069084085
:1024400000D0012070470AB1816170470904FBE7A1
:102450000148806870470000000000200248816841
:10246000027811448160704700000020032010B5FD
:1024700000F086F801F028F80F4A10491468136834
:10248000C4F3032203F00F038A5CC95C02F01F024D
:1024900001F01F01D0400A4A20FA01F111600949F8
:1024A00008600F2000F010F808B1012010BD00F006
:1024B0002BF8002010BD000018440258F85D0008F9
:1024C000100000200C00002070B50D4D0446287847
:1024D000A0B14FF47A71B1FBF0F00A490968B1FB81
:1024E000F0F001F0A6FD48B9102C07D200222146D9
:1024F000501E00F025F800206C6070BD012070BDFA
:10250000000000200C000020054808B5016841F0DB
:1025100002010160006800F00200009008BD0000A8
:10252000F4440258002809DB410900F01F02890029
:10253000012001F1E0219040C1F800017047000046
:102540000E4BF0B41B680D46C3F30223C3F107061C
:10255000042E00D90426191D072901D2002300E00A
:10256000DB1E012404FA06F19C40491E2940641E2A
:10257000994014402143F0BC02F02CBF0CED00E068
:10258000064900F0070210B54FF6FF040868044B37
:10259000204040EA02201843086010BD0CED00E026
:1025A0000000FA05134970B50A68D243520705D5F1
:1025B000096801F00701814213D118E00A6822F08E
:1025C000070202430A60FFF743FF0A4D4FF47A7691
:1025D0000446083D07E000BFFFF73AFF001BB0428A
:1025E00001D9012070BD2868C0438004F4D40020C4
:1025F00070BD00000C48025810B500F01FFF0549DF
:102600000968054AC1F30211515C01F01F01C8407D
:1026100010BD000020440258F85D0008494930B55B
:10262000484C0B1D0A68143409681D68246802F0C0
:102630000303C5F30012C1F30531C4F3CC04002930
:1026400014FB02F200EE102AF8EE400A75D03F4A61
:102650009FED3D1AB7EE000A6BB1DFED3D1A012B7D
:1026600001D0022B64D002EE101A1168F8EE422A53
:1026700081EEA22A21E0334C283C23689B0612D528
:10268000344B246801EE901A1168C4F3C104F8EECB
:10269000612AE34001EE903AC1F30801F8EE611AB5
:1026A00081EEA22A0BE001EE901ADFED2B2A00BF8B
:1026B000F8EE611A116882EEA12AC1F3080101EE59
:1026C000901A1168F8EE611A40EE811A71EE800AD4
:1026D00062EE200AC1F3462101EE101AB8EE411A4B
:1026E00031EE001AC0EE811ABCEEE11A80ED001A3C
:1026F0001168C1F3064101EE101AB8EE411A31EE2D
:10270000001AC0EE811ABCEEE11A80ED011A1168C0
:10271000C1F3066101EE101AB8EE411A31EE000A5B
:1027200080EE801ABCEEC10A80ED020A30BD04E0E2
:1027300001EE901ADFED092ABAE70021016041603D
:102740008160F3E7284402580000003938440258F9
:102750000024744A0090D0030024744C001BB74B33
:10276000494930B5484C0B1D0A681C3409681D687E
:10277000246802F00303C5F30022C1F30551C4F33A
:10278000CC04002914FB02F200EE102AF8EE400AF5
:1027900075D03F4A9FED3D1AB7EE000A6BB1DFEDF1
:1027A0003D1A012B01D0022B64D002EE101A1168E1
:1027B000F8EE422A81EEA22A21E0334C283C23681D
:1027C0009B0612D5344B246801EE901A1168C4F3AD
:1027D000C104F8EE612AE34001EE903AC1F308012A
:1027E000F8EE611A81EEA22A0BE001EE901ADFEDFD
:1027F0002B2A00BFF8EE611A116882EEA12AC1F3FC
:10280000080101EE901A1168F8EE611A40EE811A83
:1028100071EE800A62EE200AC1F3462101EE101A21
:10282000B8EE411A31EE001AC0EE811ABCEEE11A80
:1028300080ED001A1168C1F3064101EE101AB8EEDE
:10284000411A31EE001AC0EE811ABCEEE11A80ED99
:10285000011A1168C1F3066101EE101AB8EE411AAF
:1028600031EE000A80EE801ABCEEC10A80ED020A49
:1028700030BD04E001EE901ADFED092ABAE700212D
:10288000016041608160F3E728440258000000398C
:10289000404402580024744A0090D0030024744C31
:1028A000001BB74B2DE9FE4F0546DFF800A450F89A
:1028B000081B0024FD4FC943019005F1280026465E
:1028C0000AF1240A009008011DD4686E50B1B0F5D9
:1028D000801F0CD0B0F5001F0ED0B0F5401F1ED0E9
:1028E00001240FE0386840F40030386017E00198A8
:1028F000022101F0CFFF03E00098022102F05AF814
:1029000004000CD026462888C043C00523D4A86DF7
:1029100005281ED2DFE800F00C11161B1B006A6EA2
:10292000DAF8001021F440111143CAF80010EAE768
:10293000386840F40030386009E00198002101F067
:10294000A9FF03E00098002102F034F80446C4B166
:1029500000E0012426462888DFF85083C04308F1B0
:102960002C0840052FD4D5F8A400B0F5C00F28D00E
:1029700010DCB8B1B0F5001F19D0B0F5800F0FD141
:102980001AE0AA6DDAF8001021F007011143CAF825
:102990000010E0E7B0F5000F13D0B0F5200F10D015
:1029A00001240FE0386840F40030386009E00198F5
:1029B000002101F06FFF03E00098002101F0FAFF11
:1029C000044694B126462888C043000530D4D5F883
:1029D000A800B0F1407F29D011DCC0B1B0F1807FF8
:1029E0001AD0B0F1007F10D11BE0D5F8A420D8F8A0
:1029F000001021F460011143C8F80010E3E7B0F1C2
:102A0000806F13D0B0F1A06F10D001240FE03868B0
:102A100040F40030386009E00198002101F03AFFED
:102A200003E00098002101F0C5FF044694B126465A
:102A30002868DFF878B2C0430BF1200B80011FD467
:102A4000E86CD8B110280FD0202812D0302815D02B
:102A5000012414E0D5F8A820D8F8001021F0E06196
:102A60001143C8F80010E3E7386840F400303860DC
:102A700004E00198022101F00DFF044674B12646DE
:102A80002888C043C0042BD4E86DB0F5005F20D087
:102A90000DDCA0B1B0F5805F0FD115E0EA6CDBF87A
:102AA000001021F030011143CBF80010E8E7B0F539
:102AB000405F13D0B0F5804F10D001240FE038688C
:102AC00040F40030386009E00198002101F0E2FE96
:102AD00003E00098002101F06DFF04468CB126460A
:102AE0002888C043800429D4286EB0F5403F23D005
:102AF00010DC08B3B0F5803F14D0B0F5003F0FD123
:102B000015E0EA6DDAF8001021F4E0411143CAF84B
:102B10000010E5E7B0F5802F0ED0B0F5A02F0BD058
:102B200001240AE00198012101F0B4FE03E00098BD
:102B3000012101F03FFF044694B126462888C04396
:102B400040042AD4D5F8AC00B0F1405F23D010DCAB
:102B500008B3B0F1805F14D0B0F1005F0FD115E081
:102B60002A6EDAF8001021F4E0211143CAF80010AF
:102B7000E4E7B0F1804F0ED0B0F1A04F0BD00124AC
:102B80000AE00198012101F085FE03E0009801218F
:102B900001F010FF044674B126462888C0430004A3
:102BA0001FD4E86ED8B1B0F1805F0ED0B0F1005FF5
:102BB00010D0012414E0D5F8AC20D8F8001021F092
:102BC000E0411143C8F80010E7E7386840F40030EE
:102BD000386004E00198012101F05CFE044674B104
:102BE00026462868C043C0011ED4A86CD0B1012875
:102BF0000ED0022811D0032814D0012413E0EA6E6D
:102C0000DAF8001021F040511143CAF80010E8E74B
:102C1000386840F40030386004E00198022101F087
:102C200039FE04466CB126462868C043400255D49C
:102C30001F48016841F480710160FFF709FC81467B
:102C40000EE0AA6CDBF8001021F003011143CBF871
:102C50000010E9E7FFF7FCFBA0EB090064283BD874
:102C600013480068C005F5D5BCBBDFF84090B5F847
:102C7000B01009F14409D9F8000001F4407100F4E2
:102C80004070884211D0D9F80010D9F8002021F402
:102C9000407142F48032C9F80020D9F8002022F4B3
:102CA0008032C9F80020C9F8001003E02C44025813
:102CB00000480258D5F8B000B0F5807F19D1FFF771
:102CC000C7FB029011E000BFFFF7C2FB0299411A57
:102CD00041F28830814208D9032426462878DFF85B
:102CE0001494C043C00721D03CE0D9F8000080070D
:102CF000EAD5D5F8B010C1F301200328FE480DD065
:102D0000016821F47C510160B5F8B020D9F80010B9
:102D1000C2F30B021143C9F80010DFE7F74A03685A
:102D200002EA111223F47C511143ECE7A86F182832
:102D300016D005DCA0B1082808D0102804D10AE07C
:102D400020280DD028280BD001240AE00198012169
:102D500001F0A0FD03E00098012101F02BFE0446E4
:102D600064B126462878C04380071ED4686F0628C1
:102D700019D2DFE800F0160C11161616AA6FD9F852
:102D8000001021F038011143C9F80010EAE701985A
:102D9000012101F07FFD03E00098012101F00AFE0E
:102DA00004467CB100E0012426462878C043400751
:102DB0001FD4D5F89000062819D2DFE800F0160CD1
:102DC000111616166A6FD9F8001021F00701114389
:102DD000C9F80010E9E70198012101F05BFD03E06B
:102DE0000098012101F0E6FD0446A4B100E00124B1
:102DF00026462878C04380062BD4D5F88C00B0F145
:102E0000405F24D011DC10B3B0F1805F15D0B0F179
:102E1000005F10D116E0D5F89020D8F8001021F00E
:102E200007011143C8F80010E3E7B0F1804F0ED05E
:102E3000B0F1A04F0BD001240AE00198002101F06D
:102E400029FD03E00098022101F0B4FD044694B18D
:102E500026462878C04340062BD4D5F89800B0F514
:102E6000406F24D011DC10B3B0F5806F15D0B0F5F1
:102E7000006F10D116E0D5F88C20D9F8001021F0A1
:102E8000E0411143C9F80010E3E7B0F5805F0ED0D0
:102E9000B0F5A05F0BD001240AE00198002101F0F9
:102EA000F9FC03E00098022101F084FD044694B18E
:102EB00026462878C04300062BD4D5F89C00B0F5F0
:102EC000C04F24D011DC10B3B0F5005F15D0B0F5C1
:102ED000804F10D116E0D5F89820D8F8001021F4D2
:102EE000E0511143C8F80010E3E7B0F5004F0ED0F1
:102EF000B0F5204F0BD001240AE00198002101F029
:102F0000C9FC03E00098022101F054FD044654B1CD
:102F100026462878C04300071ED4D5F88000B0F5B7
:102F2000805F0AD00FE0D5F89C20D8F8001021F47B
:102F300060411143C8F80010EBE70098022101F04E
:102F400039FD00B10126D5F88020D9F8001021F410
:102F500040511143C9F800102878C043C00613D46B
:102F6000D5F89400B0F5807F05D10098022101F0DA
:102F700021FD00B10126D5F89420D8F8001021F4E5
:102F800040711143C8F800102868C043000316D4EC
:102F9000D5F8A00038B1B0F5803F09D0B0F5003FBA
:102FA0000BD001240AE00198002101F073FC03E03A
:102FB0000098022101F0FEFC04468CB126462868E8
:102FC000C043400322D4D5F88400B0F5801F11D04F
:102FD000B0F5001F13D0B0F5401F15D0012414E048
:102FE000D5F8A020D8F8001021F440311143C8F8DA
:102FF0000010E4E7386840F40030386004E00098DE
:10300000012101F0D7FC04465CB126462868C04384
:10301000C0031CD4286D70B1B0F5803F10D00124DE
:1030200014E0D5F88420D9F8001021F440111143A0
:10303000C9F80010EAE7386840F40030386004E06E
:103040000198022101F026FC0446DCB126462868DE
:10305000C043800005D40098022101F0ABFC00B110
:1030600001262868C04380031BD4E86FB8B1B0F5CF
:10307000807F10D0B0F5007F11D0B0F5407F0ED02A
:1030800001240DE02A6DDBF8001021F4803111439A
:10309000CBF80010DBE7386840F4003038607CB3D0
:1030A00026462868C043C00207D42A6FDAF8001009
:1030B00021F000411143CAF800102868C043800283
:1030C00007D4AA6EDAF8001021F080711143CAF813
:1030D00000102868C043400009D40748016821F463
:1030E000004101600168D5F8B420114301602868EF
:1030F000C04306E05444025810440258CFFFFF007A
:103100001DE007D46A6DDBF8001021F04051114337
:10311000CBF800102868C043000208D4D5F88820F6
:10312000D9F8001021F440011143C9F800102879A2
:103130000024C04300F00100204309D00EE0EA6FF4
:10314000D9F8001021F440711143C9F80010A8E724
:103150000198002101F09EFB00B106462879C0438A
:1031600000F00200204305D10198012101F092FBFB
:1031700000B106462879C04300F00400204305D181
:103180000198022101F086FB00B106462879C04370
:1031900000F00800204305D10098002101F00AFC4E
:1031A00000B106462879C04300F01000204305D145
:1031B0000098012101F0FEFB00B106462879C043CA
:1031C00000F02000044304D10098022101F0F2FB3A
:1031D00000B916B10120BDE8FE8F0020FBE700001A
:1031E0002DE9F05F04000F467ED0DFF83882D8F872
:1031F000000000F00F00B8420CD2D8F8001021F007
:103200000F013943C8F80010D8F8000000F00F0093
:10321000B84269D12078844D40070AD520692968D1
:1032200001F07001884204D9296821F0700101433E
:10323000296020787C4E361D00070AD56069316808
:1032400001F07001884204D9316821F07001014316
:1032500031602078C0060AD5A069316801F4E061C8
:10326000884204D9316821F4E0610143316020785B
:10327000DFF8B4B180060BF1080B0CD5E1695846B4
:10328000DBF8002002F07002914204D9026822F0BB
:1032900070020A430260207880070AD5E068296836
:1032A00001F00F01884204D9296821F00F01014380
:1032B00029602078C0073ED05B49A2682868183989
:1032C00020F47060104328606068022818D003283A
:1032D00019D00968012819D0490700294ADADFF80E
:1032E00048A1AAF1080A00E044E0DAF8002022F040
:1032F00007020243CAF80020FFF7AAF8814612E04D
:1033000009688903E9E709688901E6E7C905E4E78F
:10331000FFF79EF8A0EB090141F28830814202D903
:103320000320BDE8F09F6168DAF8000000F0380083
:10333000B0EBC10FECD1207880070AD5E06829688E
:1033400001F00F01884204D2296821F00F010143E6
:103350002960D8F80010404601F00F01B9420BD99E
:10336000016821F00F0139430160006800F00F008F
:10337000B84201D00120D4E7207840070AD520695F
:10338000296801F07001884204D2296821F0700197
:1033900001432960207800070AD56069316801F08F
:1033A0007001884204D2316821F07001014331601C
:1033B0002078C0060AD5A069316801F4E06188422E
:1033C00004D2316821F4E061014331602078800645
:1033D0000CD5E1695846DBF8002002F070029142FA
:1033E00004D2026822F070020A43026000F06CF816
:1033F0000E492A682B68C2F3032203F00F038A5C8C
:10340000C95C02F01F0201F01F01D040084A20FAF7
:1034100001F111600749086007480068BDE8F05FE6
:10342000FFF752B80020005218440258F85D000817
:10343000100000200C0000200400002030B500F037
:1034400043F80B4A0B490C4B15681468C5F303226B
:1034500004F00F048A5C095D02F01F0201F01F01F5
:10346000D040064A20FA01F119601060084630BDCC
:1034700018440258F85D0008100000200C000020DD
:1034800000B5FFF7DBFF05490968054AC1F30211E2
:10349000515C01F01F01C84000BD00001C440258EF
:1034A000F85D000800B5FFF7C9FF05490968054A3E
:1034B000C1F30221515C01F01F01C84000BD0000B2
:1034C0001C440258F85D0008454970B54548096834
:1034D000434B103B11F0380208D00111082A03D0E9
:1034E000102A0BD0182A0BD0084670BD196889061F
:1034F000FBD51968C1F3C101C84070BD3A4870BD21
:103500003749374D18310C1D24350A68096826687B
:103510002D6802F0030406F00102C1F30511C5F3A2
:10352000CC0515FB02F200EE102AB8EE400AE9B312
:103530002F4ADFED2E0AB7EE001A6CB1DFED2D1A1F
:10354000012C01D0022C43D002EE101A1068F8EEC4
:10355000422A81EEA22A1EE01C68A40611D51B682F
:1035600001EE901A1168C3F3C103F8EE612AD84046
:1035700001EE900AC1F30800F8EE611A81EEA22A6A
:103580000BE001EE901ADFED1C2A00BFF8EE611A85
:10359000106882EEA12AC0F3080001EE900AF8EE4E
:1035A000611A40EE201A31EE810A00E015E022EEA9
:1035B000000A1068C0F34620401C00EE900AF8EEA6
:1035C000600A80EE201ABCEEC10A10EE100A70BD2F
:1035D00001EE901ADFED092AD8E7002070BD000047
:1035E000104402580090D00300366E0100000039EC
:1035F000304402580024744A0024744C001BB74B1A
:10360000F0B50D461F49204C002887B016464FF0F4
:1036100000004FF002020F684FF0030319D047F08B
:1036200004070F60096801F004010591110200917F
:10363000CDE90120CDE9033014486946FEF7F0FDDD
:10364000206845EAC61120F07E400843206007B09C
:10365000F0BD47F001070F60096801F00101059115
:103660004FF480710091CDE90120CDE90330084885
:103670006946FEF7D5FD2068354320F0FE702843EB
:10368000E4E70000E04402581044025800080258E1
:10369000000002582DE9F05F04007DD0FF4F207834
:1036A000FE4D1837DFF8F483103DC00748D0D8F836
:1036B0000000396800F03800102815D0182803D110
:1036C00001F0030002280FD06068B0F5803F12D0EF
:1036D00010B1B0F5A02F18D0286820F480302860F1
:1036E000286820F4802009E02868800328D56068D5
:1036F0000028D2D024E0286840F480302860606838
:1037000088B1FEF7A5FE064609E0286840F480204F
:103710002860F0E7FEF79CFE801B64287ED82868AE
:103720008003F7D50CE0FEF793FE064605E000BFE8
:10373000FEF78EFE801B6428F0D828688003F7D43B
:103740002078800756D5D8F80000DFF85093396804
:1037500010F03800A9F10C090ED0182801D1880703
:103760000AD0E068A8B3296821F019010143296053
:10377000FEF76EFE064628E02868400702D5E0689E
:1037800000288AD0E168286820F0190008432860E2
:10379000FEF75EFE064606E0D2E000BFFEF758FEEA
:1037A000801B0228BAD828684007F7D5217CD9F8B1
:1037B000002022F0FE4242EA0161C9F8001019E03F
:1037C000FEF746FE801B0228A8D828684007F7D5D8
:1037D000ECE7FFE7286820F001002860FEF738FEDC
:1037E000064604E0FEF734FE801B022896D82868BF
:1037F0004007F7D42078C00646D5D8F80000DFF897
:103800009C92396800F03800A9F10409082812D008
:10381000182805D101F00300012800E0CEE00AD00D
:10382000E0690028286820D040F080002860FEF77A
:103830000FFE064615E02868C00502D5E06980281D
:103840007ED194F82010D9F8002022F07C5242EA70
:103850000161C9F8001017E0FEF7FAFD801B02288D
:10386000A0D82868C005F7D5EBE720F080002860D5
:10387000FEF7EEFD064604E0FEF7EAFD801B022897
:1038800090D82868C005F7D42078000729D5834848
:103890006169643000298146016811D041F001015D
:1038A0000160FEF7D5FD064605E000BFFEF7D0FD3E
:1038B000801B022888D8D9F800008007F6D510E0D0
:1038C00021F001010160FEF7C3FD064605E000BFDF
:1038D000FEF7BEFD801B022870D8D9F800008007D3
:1038E000F6D42078800623D5A0690028286810D057
:1038F00040F480502860FEF7ABFD064605E000BFAF
:10390000FEF7A6FD801B022858D828688004F7D54A
:103910000EE020F480502860FEF79AFD064604E091
:10392000FEF796FD801B022848D828688004F7D44B
:103930002078400751D5DFF86891D9F8001000E0F1
:1039400015E141F48071C9F80010FEF781FD0646CB
:1039500005E000BFFEF77CFD801B64282ED8D9F857
:103960000000C005F6D54D4EA068603601280AD08B
:1039700008B1052813D0306820F0010030603068AD
:1039800020F0040002E0306840F001003060A068E0
:1039900041F2883A98B1FEF75BFD81460AE0306853
:1039A00040F004003060EEE7FEF752FDA0EB0901A5
:1039B000514503D830688007F6D50EE072E0FEF777
:1039C00047FD814606E000BFFEF742FDA0EB09017E
:1039D000514567D830688007F6D4606A00287CD0EB
:1039E000DFF8B8A0D8F800100AF1200A4FF6F87BEB
:1039F0000AF10408C1F3C2010329AAF104096DD038
:103A00000228286820F08070286003D0FEF720FD8F
:103A1000044681E0FEF71CFD064604E0FEF718FDB3
:103A2000801B022875D828688001F7D4E26A40F22A
:103A3000F331386854F8283F884340EA02101843AD
:103A40003860217B4FF4FE0C22894FF0FE47208A1C
:103A50004902267D521E401EA1F5007189B2C2F3B3
:103A600008021143761E0CEA00400143484607EA6B
:103A700006621143CAF80010D9F8001021F00101C4
:103A8000C9F80010D8F80030266A23EA0B0343EA8D
:103A9000C601C8F80010D9F8001004E0104402581C
:103AA0000048025835E0A26921F00C011143C9F821
:103AB00000100168E26921F0020111430160016810
:103AC00041F480310160016841F400310160016816
:103AD00041F480210160016801E06CE020E041F0E8
:103AE00001010160286840F080702860FEF7B0FC9A
:103AF000044604E0FEF7ACFC001B022809D8286845
:103B00008001F7D557E000BFFEF7A2FC001B02289A
:103B100002D90320BDE8F09F28688001F4D44AE070
:103B200039680128DAF8000021D0A26A01F0030305
:103B300093421CD1E26AC1F305118A4217D1216B6D
:103B4000C0F30802491E8A4211D1616BC0F34622BC
:103B5000491E91420BD1A16BC0F30642491E91420E
:103B600005D1E16BC0F30660491E814201D00120FE
:103B7000D0E7A16C4646D8F80000C0F3CC008142E3
:103B800019D0D9F800004D4620F00100C9F8000016
:103B9000FEF75EFC4FEA0007FEF75AFCB842FBD086
:103BA000A26C306820EA0B0040EAC200306028684E
:103BB00040F0010028600020ACE700002DE9F0474C
:103BC000040029D0594A4FF000092068584B594D3C
:103BD0009042C4F8289006D0984204D0A84202D05F
:103BE000E1680F2918D8E1684FF0010AE76B083146
:103BF000C9080AEB57167143904205D0984203D08A
:103C0000A84201D0082907D8904203D0984201D099
:103C1000A84204D1102902D90120BDE8F08794F808
:103C2000810020B9204684F8809000F085F80220B9
:103C300084F881002068016821F00101016020689A
:103C4000A1698268B1F1806F02F4F81110D1626845
:103C5000B2F5800F01D01AB10AE0A26B22B107E0E1
:103C6000A26BB2F1805F03D1026842F4805202601D
:103C70006068400209D5E068072806D32068236DF4
:103C8000026822F480721A4303E02068026822F47A
:103C900080720260A66AE069E26B25683043E368DF
:103CA0000A4310431843A860D4E90D02D4E9058102
:103CB000636A25691843D4F820C00A432668104374
:103CC0002843A56DD4E90172D4E9123140EA080015
:103CD00040EA0C0038430843104318432843F0607F
:103CE000606868B92068816821F4C05141F40061BE
:103CF00081602068816821F4C06141F48061816045
:103D00002068016D21F0010101656068400206D55F
:103D10002068626DC16821F000411143C160C4F8A0
:103D2000849084F881A0002077E7000000300140F3
:103D300000380040003C004070B5B4B00446142187
:103D40002EA8FCF717FBB8216846FCF713FB2149A6
:103D5000206888423CD18114002017900446CDE9A8
:103D600000106846FEF79EFD08B1FCF712FE1A48E7
:103D7000016841F480510160006800F48050339084
:103D800015481038016841F008010160016801F030
:103D900008013391016841F00201016000680526C5
:103DA000022500F00200339080202E90CDE92F54A0
:103DB0000A482EA9CDE93146FEF732FA08202E90A6
:103DC000CDE92F5406482EA9CDE93146FEF728FA51
:103DD00034B070BD00300140F0440258000C02586D
:103DE000000402582DE9FC5F0446006817468A4625
:103DF0000021994694F8802000F1200B0191012ABE
:103E00000DD04FF0010884F88080FEF721FB0646B4
:103E100094F881000025012804D0022034E002201B
:103E2000BDE8FC9FBAF1000F2DD067B3A168032055
:103E3000C4F85CA0A4F8607084F88100C4F88450D1
:103E4000A4F862706566A4F86850A4F86A50B1F5E9
:103E5000C02F65672567206819D0C16821F4C0218B
:103E600041F40031C160206841686FF30F013943AC
:103E700041602068016841F0010101606068B0F5AF
:103E8000800F09D00DE0012084F88050C8E7016858
:103E900041F400610160E6E72068016841F40071C7
:103EA0000160E0680F281CD820E02068416989077C
:103EB0000BD5E16D09680162E06D001DE065B4F8A5
:103EC0006200401EA4F862000BE0FEF7C1FA811BFD
:103ED000494503D3B9F1FF3F03D099E0B9F1000F91
:103EE00030D0B4F862000028DFD177E007282DD861
:103EF00070E02068416989071CD5B4F86210012977
:103F00000BD9E16B49B1E16D09680162E06D001DFB
:103F1000E065B4F86200801E09E0E06D0188ABF84E
:103F20000010E06D801CE065B4F86200401EA4F84B
:103F300062000BE0FEF78CFA811B494503D3B9F10F
:103F4000FF3F03D064E0B9F1000F61D0B4F8620024
:103F50000028CED142E02068416989072ED5B4F807
:103F6000621003290CD9E16B402909D9E16D096878
:103F70000162E06D001DE065B4F86200001F1AE008
:103F8000B4F8621001290CD9E16B51B1E06D0188E0
:103F9000ABF80010E06D801CE065B4F86200801E94
:103FA00009E0E16D097880F82010E06D401CE065C3
:103FB000B4F86200401EA4F862000BE0FEF748FA75
:103FC000811B494503D3B9F1FF3F03D020E0B9F18C
:103FD000000F1DD0B4F862000028BCD100224B466F
:103FE00008212046009600F0D3FD28B1D4F88400C3
:103FF00040F02000C4F88400204600F06BFD84F8F7
:104000008180D4F8840084F8805080B1012007E7D3
:10401000204600F05FFDD4F8841084F8805041F40D
:104020008071C4F8841084F881800320F8E6019838
:10403000F6E6401EB0F1807F10B501D3012010BD1F
:104040004FF0E02460610F21601701F0C3F90020F8
:10405000A0610721216110BD30B590F884100129BD
:1040600018D0012280F884202421C0F88810002272
:10407000202401680B680D6823F0005325F001052A
:104080000D60426601680B60C0F8884080F88420AB
:10409000104630BD022030BD70B5044690F8840053
:1040A00001281DD0012284F884202420C4F888002F
:1040B00020680568026822F00102026020688268B8
:1040C00022F060620A438260204600F037FE2268D8
:1040D000202100201560C4F8881084F8840070BD89
:1040E000022070BD70B5044690F8840001281DD0F0
:1040F000012284F884202420C4F888002068056800
:10410000026822F0010202602068826822F06042A8
:104110000A438260204600F011FE22682021002020
:104120001560C4F8881084F8840070BD022070BD4A
:1041300010B5040003D0D4F8880010B107E00120C6
:1041400010BD002084F88400204600F027F82420C9
:10415000C4F888002068016821F001010160204650
:1041600000F0F2FE0128EBD0A06A10B1204600F06A
:1041700007FE2068416821F4904141602068816811
:1041800021F02A0181602068016841F0010101608D
:104190002046BDE8104000F057BE0000F0B5B5B0B5
:1041A000064614212EA8FCF7E5F8B8216846FCF76E
:1041B000E1F824493068884241D100201E90012155
:1041C0000546CDE900106846FEF76CFB08B1FCF728
:1041D000E0FB1D48016841F010010160006800F03B
:1041E0001000339018481038016841F00101016057
:1041F00000682EAB022100F0010033904FF4C06044
:10420000072283E8230011482EA9CDE93152FEF799
:1042100007F80F4C2A210F48402284E82700871511
:1042200003152046C4E90435C4E9065725626562D2
:10423000FDF7B8FC08B1FCF7ACFBF467A66335B03A
:10424000F0BD000000100140F04402580000025888
:1042500004020020280002402DE9F8430446D0F86B
:104260008800984616460D46202802D00220BDE858
:10427000F883A5B19EB10021C4F890102120C4F8A4
:1042800088001834FEF7E4F8814654F8100CA6872D
:10429000E6872027183CB0F5805F02D003E00120BC
:1042A000E5E7206910B12E46002510E000260EE05B
:1042B0008021204601F036F8C0B9DEB116F8010BB6
:1042C00021688862B4F85600401EA4F85600B4F87D
:1042D00056004B464FF00002CDF800800028E7D191
:1042E0004FF04001204601F01DF848B1C4F8887035
:1042F0000320BCE735F8020B2168C0F30800E0E7B3
:10430000C4F888700020B2E7FEE72DE9F0411E46B0
:1043100014460F4605462A2000F03AF91435A8B293
:1043200000F02CF91434A0B200F028F92B2000F092
:104330002FF9384600F022F9304600F01FF9BDE8A9
:10434000F0412C2000F024B92DE9F0470C468046BE
:10435000581E1F46511E164683B2DDF820908AB2C1
:1043600021464046FFF7D1FF0AE0454604E04846B3
:1043700000F004F96D1CADB2B542F8D3641CA4B2D0
:10438000BC42F2D3BDE8F08770B5674D4FF40064CE
:10439000002221462846FEF756F86420FDF72EFF3E
:1043A000012221462846FEF74EF86420FDF726FF3D
:1043B000012228469102FEF746F86420FDF71EFF11
:1043C000112000F0E5F87820FDF718FF362000F006
:1043D000DFF8702000F0F2F83A2000F0D9F805205C
:1043E00000F0ECF8B22000F0D3F80C2000F0E6F872
:1043F0000C2000F0E3F8002000F0E0F8332000F09B
:10440000DDF8332000F0DAF8B72000F0C1F83520ED
:1044100000F0D4F8BB2000F0BBF8322000F0CEF85A
:10442000C22000F0B5F8012000F0C8F8C32000F069
:10443000AFF8152000F0C2F8C42000F0A9F8202041
:1044400000F0BCF8C62000F0A3F80F2000F0B6F88A
:10445000D02000F09DF8A42000F0B0F8A12000F0DA
:10446000ADF8E02000F094F8D02000F0A7F8082084
:1044700000F0A4F80E2000F0A1F8092000F09EF84A
:10448000092000F09BF8052000F098F8312000F09A
:1044900095F8332000F092F8482000F08FF81720AC
:1044A00000F08CF8142000F089F8152000F086F850
:1044B000312000F083F8342000F080F8E12000F093
:1044C00067F8D02000F07AF8082000F077F80E2086
:1044D00000F074F8092000F071F8092000F06EF87F
:1044E000152000F06BF8312000F068F8332000F060
:1044F00065F8482000F062F8172000F05FF81420FB
:1045000000F05CF8152000F059F8312000F056F862
:10451000342000F053F8212000F03AF8BDE8704054
:10452000292000F035B80000000402582DE9F047BA
:104530001F469046CB1900EB0802DDF820905B1E69
:10454000521E9BB292B20025FFF7DFFE002611E05B
:1045500000240BE019F8150000F030F809EB4500D5
:10456000407800F02BF8641CA4B26D1CBC42F1D35F
:10457000761CB6B24645EBD3BDE8F08710B50446CD
:10458000000A00F01BF8E0B2BDE8104000F016B8D9
:1045900070B5094D4FF48064002206462146284636
:1045A000FDF751FF304600F009F821462846BDE8E6
:1045B00070400122FDF747BF000C025831B50A4D8B
:1045C0004FF40044002221462846FDF73CFF0748EF
:1045D00001224FF6FF736946FFF704FC01222146D2
:1045E0002846FDF730FF38BD00100258E8000020D3
:1045F0000E48202310B50C4C002108220460C0E9AD
:104600000113C160016141618161C0E908218162DA
:10461000C1620163FCF726FA002803D0BDE8104010
:10462000FCF7B7B910BD00000000024820000020D0
:104630000D4808B5016841F00101016000680022E1
:10464000114600F0010000900B20FDF779FF0B20D0
:10465000FDF768FF00220C201146FDF771FFBDE851
:1046600008400C20FDF75EBFD84402582DE9F04FFA
:1046700087B014216846FBF77DFE4C48016841F085
:1046800010010160016801F010010591016841F01D
:1046900080010160016801F080010591016841F02D
:1046A00001010160016801F001010591016841F01B
:1046B00004010160016801F004010591016841F005
:1046C00002010160016801F002010591016841F0F9
:1046D0000801016000680122354C202100F008002B
:1046E00005902046FDF7AFFEDFF8C8B04FF4004854
:1046F000002241465846FDF7A6FE2F4800224FF4FF
:104700007061FDF7A0FE4FF480592B480122494605
:10471000FDF799FE4FF4806A284800225146FDF7C4
:1047200092FE012569460226032720208DE8E1003C
:104730002046FDF775FD0024CDF8008069465846F7
:10474000CDE901540394FDF76BFDB8020090CDE96B
:104750000154194869460394FDF762FD16486946FD
:10476000CDE90095CDE90257FDF75AFDCDF800A03F
:104770006946CDE9015411480394FDF751FD280223
:104780000090CDE901640E48694603940494FDF756
:1047900047FD3802039411218DE82300064869463D
:1047A000FDF73EFD07B0BDE8F08F0000E044025881
:1047B000000802580010025800040258000C025869
:1047C000000002582DE9F0414FF480051448134AC7
:1047D00007276E114FF0007C2C0180E8E4100021C7
:1047E000E300C0E90514C0E9073141625A00816263
:1047F000C162C0E90D21C163016441648164C16487
:10480000016541658165FFF7D9F9002803D0BDE84E
:10481000F041FCF7BEB8BDE8F08100000030014077
:10482000E80000201848002110B5164C0C224FF467
:1048300061230460C0E90131C160C0E904128161F3
:10484000C161016241628162FFF772FC08B1FCF74D
:10485000A0F80D480021FFF745FC08B1FCF799F8D6
:1048600009480021FFF718FC08B1FCF792F8064848
:10487000FFF7F2FB002803D0BDE81040FCF789B831
:1048800010BD00000010014070010020FEE7FEE7AF
:10489000704700002DE9F047454D044689464FF02A
:1048A000000A2868C04380070AD0414E283E30687D
:1048B00020F080603060FDF7CBFD0746B04608E091
:1048C0000120BDE8F08700BFFDF7C2FDC01B022834
:1048D00067D8D8F800000001F6D4206829684FF4A2
:1048E000FE0721F47C313E0241EA00302860207A44
:1048F000A389B4F804C040022D4D2D495B1E227CD3
:10490000ACF1010C1035091DA0F5007080B2521EEB
:10491000CCF3080C07EA034340EA0C00184306EA0C
:104920000262104328600868626920F0C0001043EA
:1049300008600A68A06922F0200202430A60281D6C
:104940000A6822F010020A6002684FF6F873E46900
:104950009A4342EAC40202600868B9F1000F40F0CD
:1049600010020A6011D00868B9F1010F11D040F4AB
:1049700000100860D8F80000444640F08060C8F895
:104980000000FDF765FD05460DE0086840F40020D5
:10499000EFE740F48010ECE7FDF75AFD401B0228DA
:1049A00001D903208DE720680001F5D5504688E73E
:1049B000284402582DE9F047454D044689464FF0FA
:1049C000000A2868C04380070AD0414E283E30685C
:1049D00020F080503060FDF73BFD0746B04608E010
:1049E0000120BDE8F08700BFFDF732FDC01B0228A3
:1049F00067D8D8F800008000F6D4208829684FF4E2
:104A0000FE0721F07C713E0241EA00502860207AC6
:104A1000A389B4F804C040022D4D2D495B1E227CB1
:104A2000ACF1010C1835091DA0F5007080B2521EC2
:104A3000CCF3080C07EA034340EA0C00184306EAEB
:104A40000262104328600868626920F440601043E5
:104A500008600A68A06922F4007202430A60281DF7
:104A60000A6822F480720A6002684FF6F873E469FB
:104A70009A4342EAC40202600868B9F1000F40F4A8
:104A800080720A6011D00868B9F1010F11D040F0AE
:104A900080700860D8F80000444640F08050C8F8A4
:104AA0000000FDF7D5FC05460DE0086840F48000E5
:104AB000EFE740F40000ECE7FDF7CAFC401B0228DA
:104AC00001D903208DE720688000F5D5504688E79E
:104AD0002844025810B5026840F26F335169946956
:104AE00044F0080494610268946944F010049461ED
:104AF0000268146824F001041460026814699C437D
:104B000014610268936823F44043936090F8812015
:104B1000042A0CD08A060AD5D0F8842042F08002FC
:104B2000C0F884200268936943F02003936190F8F1
:104B30008120032A0CD04A060AD5D0F8842042F0FE
:104B40000402C0F884200268936943F04003936133
:104B50008A050AD5D0F8842042F00102C0F88420EA
:104B60000268936943F400739361C9050AD5D0F8CC
:104B7000841041F00801C0F8841001688A6942F489
:104B800080728A610021A0F86210A0F86A1010BD3E
:104B90002DE9F0411C4616460D460746DDF8188003
:104BA0000AE000BFFDF754FCA0EB0800A04202D3CE
:104BB000601C01D00BE054B13868406935EA000050
:104BC00007D00020B042EDD00020BDE8F0810320E6
:104BD000FBE70120F6E77047FDF740BC70B59CB0DD
:104BE0004C216846FBF7C6FB202113A8FBF7C2FB4C
:104BF0000220FDF7D7FC2048016821F44041016004
:104C00000168002401F440411B9101688904FCD52E
:104C100002200A9028230990C20301210D91042546
:104C2000CDE90012CDE90B030C261294CDE90E500C
:104C3000CDE910646846FEF72DFD08B172B6FEE7B7
:104C400040201A9008230501CDE9163013ABCDE9B9
:104C500018053F21032283E8160013A81146FEF72A
:104C6000BFFA08B172B6FEE74FF48022002051016E
:104C7000FEF7C6FC1CB070BD184802582748F0B5B6
:104C8000274A016841F470010160106800F00F00CC
:104C9000072804D2106820F00F00C01D10602149C1
:104CA0000020204C10340B681F4D43F001030B60B3
:104CB00020600B682B400B60136803F00F03072B79
:104CC00004D9136823F00F03DB1D1360154C174A3A
:104CD0001834174B261D371D2060124C154D2834F3
:104CE0003060261D3860371D23603B1D35601C1D5C
:104CF0003A60251D2E1D1860331D22602860326029
:104D000018600A6843F2D204064B0B4D22F480224D
:104D100060330A6018602C60F0BD000088ED00E090
:104D200000200052004402587FEDF6EA80020101A3
:104D3000000202020000FF010040005230B5416E47
:104D4000B9B101680D4B03F108048A688968C2F3A0
:104D50004262490F5D5C615C2D01B5FBF1F1A0F889
:104D60006A10995CA25C0901B1FBF2F1A0F868102D
:104D700030BD0121A0F86A10F8E70000E85D0008E6
:104D800090F82810C90706D00168C36A4A6822F45F
:104D900000321A434A6090F82810890706D5016846
:104DA000036B4A6822F480321A434A6090F8281054
:104DB000490706D50168436B4A6822F480221A43EA
:104DC0004A6090F82810090706D50168836B4A6885
:104DD00022F400421A434A6090F82810C90606D50A
:104DE0000168C36B8A6822F480521A438A6090F883
:104DF0002810890606D50168036C8A6822F40052DF
:104E00001A438A6090F82810490611D50168436C4E
:104E10004A6822F480121A434A60416CB1F5801F3F
:104E200006D10168836C4A6822F4C0021A434A60C2
:104E300090F82810090606D50168C26C486820F46D
:104E400000201043486070472DE9F84300250446D0
:104E5000C0F89050FDF7FCFA8046206820266FF0DD
:104E60007E470068000713D50022434631042046E0
:104E7000009700F057FA58B1216851E8000F20F070
:104E8000800041E80002002AF6D1C4F8886021E0E1
:104E900020680068400722D5002243464FF4800175
:104EA0002046009700F03EFAC8B1206850E8001F85
:104EB00021F4907140E80012002AF6D120680830F1
:104EC00050E8001F21F0010140E80012002AF5D14E
:104ED000C4F88C60032084F88450BDE8F883C4F8DB
:104EE0008860C4F88C60E5662567002084F88450EB
:104EF000F3E7000010B5026852E8001F21F490713A
:104F000042E80013002BF6D10E4B0268083252E83B
:104F1000001F194042E80014002CF6D1C16E01298F
:104F200008D1026852E8001F21F0100142E8001386
:104F3000002BF6D100212022C0F88C20C1664167E9
:104F400010BD0000FEFFFFEF2DE9F043044680682E
:104F5000E24E87B0E24B2168D4E90427D4F81CC0A4
:104F600010430A68002547EA0C07384332400243E1
:104F70000A602068E268416821F4405111434160B1
:104F80002268A1699A4201D0206A01439668DFF83D
:104F900054C3D54FD54806EA0C060E4396602168E7
:104FA000666ACA6A22F00F023243CA622268BA42B3
:104FB0000ED1006800F0380018286FD07ADCB8B342
:104FC00008286CD010286BD18BE0282868D18EE09F
:104FD000C7498A4209D1006800F0070006285FD25D
:104FE000DFE800F0507D7F818385C2498A4209D184
:104FF000006800F0070006287BD2DFE800F043706D
:1050000072747678BC498A4209D1006800F00700C2
:1050100006286ED2DFE800F036636567696BB74932
:105020008A420BD1006800F00700062861D200E038
:1050300043E0DFE800F0275456585A5CB0498A42F2
:1050400006D1006800F0380018284CD0B7DD31E0F8
:10505000AC498A4209D1006800F00700062848D20E
:10506000DFE800F0103D3F414345A7498A420BD19C
:10507000006800F0070006283BD2DFE800F00330AC
:1050800032343638002035E0A0498A4209D1006820
:1050900000F03800182826D091DD0BE023E01EE058
:1050A00027E09B498A420AD1006800F0380018289E
:1050B00019D084DD202888D11CE001201AE09A4212
:1050C00017D18A48001D006800F00700062810D29A
:1050D000DFE800F0030507090B0D02200AE00420B9
:1050E00008E0082006E0102004E0202002E0402034
:1050F00000E080208749DFF820829A42874A4FF4F7
:1051000000434FEA21174FF000064ED110281AD065
:1051100006DC022809D004280BD008287ED10DE037
:1051200020283ED0402879D13DE0FDF765FA0146C0
:1051300010E06846FDF772FA01990BE003A8FDF74D
:105140000FFB049906E01068800605D51068C0F3CF
:10515000C100C140002970D0606A676838F810202B
:1051600007EB4703B1FBF2F0834257D8B0EB073FA0
:1051700054D8002308461946FBF7C4F802467808BD
:10518000130E120243EA012110183A46714100231E
:10519000FBF7B8F8624AA0F5407191423ED8216809
:1051A0008FE03946D8E71946D6E7D4F81CC04FF649
:1051B000EF799C4546D1082819D005DC58B1012863
:1051C0000CD0042875D10DE0102815D0202835D03A
:1051D00040286ED134E0FEF753F901E0FEF762F9A2
:1051E000014610E06846FDF719FA01990BE003A8A3
:1051F000FDF7B6FA049906E01068800604D5106839
:10520000C0F3C100C140C1B1636A606838F81330AF
:10521000B1FBF3F1490001EB500100E049E0B1FBC3
:10522000F0F0A0F11001494543D84FF6F073216822
:10523000C0F342021840104343E043E03946E3E73D
:105240001946E1E7082819D005DC58B101280CD02F
:1052500004282ED10DE0102815D020282BD040286E
:1052600027D12AE0FEF70CF901E0FEF71BF9014611
:1052700010E06846FDF7D2F901990BE003A8FDF7AD
:105280006FFA049906E01068800604D51068C0F330
:10529000C100C140B1B1636A606838F81330B1FB36
:1052A000F3F101EB5001B1FBF0F0A0F11001494521
:1052B00005D9012506E03946EDE71946EBE72168F7
:1052C00080B2C8600120A4F86A00A4F868002846EB
:1052D0006667A66707B0BDE8F0830000F369FFCFFB
:1052E000000C0058FFF4FF11001001405444025814
:1052F0000044004000480040004C00400050004086
:105300000014014000780040007C0040001801407B
:10531000001C01400090D003D05D000800440258FA
:10532000FFFC0F002DE9F047994617460E4604464C
:10533000089D4FF000082FE0681C2DD0FDF788F87D
:10534000A0EB0900A84214D89DB120680168490764
:1053500022D5C169C94309070DD408250562204635
:10536000FFF7C8FDC4F89050012084F88480BDE8A0
:10537000F0870320FBE7C069C04300050CD4216817
:105380004FF4006008622046FFF7B4FD2021C4F806
:10539000901084F88480ECE72068C06936EA000049
:1053A00004D00020B842C7D00020E0E70120F9E790
:1053B000FEE700000FB4054B10B503A9044A02989C
:1053C00000F028F810BC5DF814FB0000D55600086A
:1053D0001C000020090700284FEA116104DB00F1DE
:1053E000E02080F80014704700F00F0000F1E0208A
:1053F00080F8141D704702E008C8121F08C1002A77
:10540000FAD170477047002001E001C1121F002A45
:10541000FBD170472DE9FF4F8DB09B460F460446E8
:10542000002606E025280BD05A460F999047641CA9
:10543000761C20780028F5D111B03046BDE8F08FF9
:105440000025A8460122984900E0054314F8013FD1
:10545000203B02FA03F00842F7D120782E2817D11A
:1054600014F8010F45F004052A280ED06FF02F0222
:105470002078A0F1300109290AD808EB880102EB55
:10548000410100EB0108641CF2E757F8048B641C2F
:1054900020786C280DD004DC4C2812D06A2811D159
:1054A00004E074280DD07A280CD10AE045F40015E8
:1054B00007E0617845F48015814202D1641C05F54E
:1054C0008015641C2278692A45D008DC002AB3D0F4
:1054D000582A69D0632A10D0642A08D13BE0702A88
:1054E00067D0732A13D0752A5CD0782A5CD0104616
:1054F0005A460F999047761CD3E017F8040B8DF8A5
:10550000000000208DF80100E946012003E057F873
:10551000049B4FF0FF3069074FF0000501D40AE00B
:105520006D1C45450DDA8542FADB19F80510002996
:10553000F6D106E06D1C8542FCDB19F80510002948
:10554000F8D12E4404E019F8010B5A460F99904700
:105550006D1EF8D2A5E00A200021CDE90801C5F3AF
:10556000025002280DD001CFC117031E71F10003B4
:105570000DDA4FF0000CD0EB0C006CEB01012D2389
:1055800008E0FF1D27F00707F7E80201EDE72B050C
:1055900004D52B238DF8283001233BE0EB0739D0CD
:1055A0002023F7E70A2000E010200021CDE90801C0
:1055B00007E01020002145F00405CDE908014FF077
:1055C0000808C5F3025002280FD001CF00214FF088
:1055D000000A2B071FD5702A0DD0DDE908C38CF017
:1055E000100C5CEA030C0CD015E0FF1D27F0070738
:1055F000F7E80201EBE740228DF828204FF0010A7E
:105600000BE050EA010306D030238DF828308DF8E6
:10561000292002239A46582A04D024A20DF12009F9
:105620000B9209E026A2F9E7DDE90823FAF76AFE02
:105630000B9B9B5C09F8013D50EA0102F4D1ADEBF4
:10564000090020300890680701D44FF0010808993C
:10565000884502DDA8EB010000E00020804600251F
:1056600006E00AA85A46405D0F9990476D1C761CCB
:105670005545F6DB04E030205A460F999047761CDA
:10568000B8F10001A8F10108F5DC05E019F8010BFB
:105690005A460F999047761C0899481E0890002991
:1056A000F4DC641CC5E60000092801003031323307
:1056B000343536373839616263646566000000004E
:1056C0003031323334353637383941424344454638
:1056D0000000000013B5044801224FF6FF7369462D
:1056E000FEF7BAFD00981CBD700100203949002466
:1056F00008B50868800311D4BFF34F8FBFF36F8FD5
:1057000035480460BFF34F8FBFF36F8F086840F4D4
:1057100000300860BFF34F8FBFF36F8F0868C0037E
:1057200024D42C4870300460BFF34F8F001F43F621
:10573000FF760068284D1035C0F34E32C0F3C90320
:1057400006EA4217184600BF47EA807CC5F800C049
:10575000401EF9D2521EF3D2BFF34F8F086840F4B7
:1057600080300860BFF34F8FBFF36F8FFCF77EFE72
:10577000FFF734FAFEF77AFFFEF75AFFFEF738FF1D
:10578000FFF750F8FFF71EF8FEF7FEFD002100942A
:105790004FF48C770846F0233A46FEF7D5FD00F02B
:1057A0007FF800F01DF800F075F84FF0105548F242
:1057B0004031284600F0FCF8084E30780128FCD132
:1057C00034700021F0233A4608460095FEF7AEFEFD
:1057D000F3E7000014ED00E050EF00E014000020BB
:1057E00070B54FF440560024304620214FF4004558
:1057F00000F0DAFA124940F6ED72284600F0AAFAF3
:105800000021304600F0D0FA43F22905284600F086
:10581000E1F97E2802D070280DD002E009A0FFF740
:10582000C9FD641CA4B2642CF0D30BA0FFF7C2FD29
:105830004FF0FF3070BD12A0FFF7BCFD002070BD1F
:10584000306200084146B9CCBCFEB3F5CABCBBAF60
:10585000D6D03E3E3E0D0A00D7D4B6AFB6D4BDB9C1
:10586000B9CCBCFED0B4C8EBCAA7B0DCA3A1A3A13D
:10587000A3A16572726F72A3A1A3A10D0A0000001B
:105880004146B9CCBCFED0B4C8EBB3C9B9A6A3A1FC
:105890000D0A0000042143F2220000F085BA000046
:1058A00010B500F001F900F053F800F043F801469C
:1058B000A0F5AC40403805D008A0FFF77BFD4FF0C5
:1058C000FF3010BD0CA0FFF775FD00F01FF8F021B0
:1058D0004FF48C7000F082F8002010BD4F56353622
:1058E0003430204552524F5221212121212020497C
:1058F000443A25580D0A00004F5635363430204FB3
:105900004B2C49443A307825580D0A0070B5084DA3
:105910005FF0000405EB8400817835F8240000F086
:1059200043FA0120FCF76AFC641CFE2CF2D370BD24
:10593000385E000843F20A0010B500F04BF9044647
:1059400043F20B0000F046F940EA042010BD0000CD
:1059500070B5154D4FF48054002221462846FCF7BF
:1059600072FD6420FCF74AFC104800222021FCF75D
:105970006AFD6420FCF742FC012221462846FCF720
:1059800062FD6420FCF73AFC112143F2031000F0A1
:105990000BFA822143F2080000F006FABDE87040DD
:1059A0000520FCF72BBC0000000402580008025838
:1059B00070B50C46074905464FF48070C86108462B
:1059C000FCF7F0F823462A46BDE870400248002163
:1059D000FBF73EB9700000202000002070B543F2B4
:1059E00012260C4603210546304600F0DDF9290A4F
:1059F00043F6080000F0D8F943F60900E9B200F0D8
:105A0000D3F9210A43F60A0000F0CEF943F60B0061
:105A1000E1B200F0C9F91321304600F0C5F9A32125
:105A2000304600F0C1F9002070BD000070B5134D84
:105A30004FF48074002221462846FCF704FD00F054
:105A40001FF86600284600223146FCF7FCFC00F0F7
:105A500017F8012221462846FCF7F5FC00F010F863
:105A6000002221462846FCF7EEFC0122314628465A
:105A7000FCF7E9FCBDE8704000F002B800040258F1
:105A800000220F2008B50CE0ADF8002005E000BFB3
:105A9000BDF80010491CADF80010BDF80010032936
:105AA000F6D3401EF0D208BD70B586B0142168460A
:105AB000FAF760FC1948016841F0020101600168D1
:105AC00001F002010591016841F0020101600068E6
:105AD00011214FF48074124E00F002000590002056
